{
  "contractName": "CoinBet",
  "abi": [
    {
      "inputs": [],
      "payable": false,
      "stateMutability": "nonpayable",
      "type": "constructor"
    },
    {
      "anonymous": false,
      "inputs": [
        {
          "indexed": false,
          "internalType": "address",
          "name": "userAddress",
          "type": "address"
        },
        {
          "indexed": false,
          "internalType": "uint256",
          "name": "betResult",
          "type": "uint256"
        }
      ],
      "name": "betResultReady",
      "type": "event"
    },
    {
      "anonymous": false,
      "inputs": [
        {
          "indexed": false,
          "internalType": "bytes32",
          "name": "queryId",
          "type": "bytes32"
        },
        {
          "indexed": false,
          "internalType": "string",
          "name": "description",
          "type": "string"
        }
      ],
      "name": "randomNumberRequested",
      "type": "event"
    },
    {
      "constant": true,
      "inputs": [],
      "name": "owner",
      "outputs": [
        {
          "internalType": "address",
          "name": "",
          "type": "address"
        }
      ],
      "payable": false,
      "stateMutability": "view",
      "type": "function"
    },
    {
      "constant": false,
      "inputs": [],
      "name": "deposit",
      "outputs": [
        {
          "internalType": "uint256",
          "name": "",
          "type": "uint256"
        }
      ],
      "payable": true,
      "stateMutability": "payable",
      "type": "function"
    },
    {
      "constant": false,
      "inputs": [],
      "name": "submitBet",
      "outputs": [],
      "payable": true,
      "stateMutability": "payable",
      "type": "function"
    },
    {
      "constant": false,
      "inputs": [
        {
          "internalType": "bytes32",
          "name": "_myid",
          "type": "bytes32"
        },
        {
          "internalType": "string",
          "name": "_result",
          "type": "string"
        }
      ],
      "name": "__callback",
      "outputs": [],
      "payable": false,
      "stateMutability": "nonpayable",
      "type": "function"
    },
    {
      "constant": false,
      "inputs": [
        {
          "internalType": "bytes32",
          "name": "_queryId",
          "type": "bytes32"
        },
        {
          "internalType": "string",
          "name": "_result",
          "type": "string"
        },
        {
          "internalType": "bytes",
          "name": "_proof",
          "type": "bytes"
        }
      ],
      "name": "__callback",
      "outputs": [],
      "payable": false,
      "stateMutability": "nonpayable",
      "type": "function"
    },
    {
      "constant": false,
      "inputs": [],
      "name": "requestRandomNumber",
      "outputs": [
        {
          "internalType": "bytes32",
          "name": "",
          "type": "bytes32"
        }
      ],
      "payable": true,
      "stateMutability": "payable",
      "type": "function"
    },
    {
      "constant": false,
      "inputs": [
        {
          "internalType": "bytes32",
          "name": "_queryId",
          "type": "bytes32"
        },
        {
          "internalType": "uint256",
          "name": "_randomNumber",
          "type": "uint256"
        }
      ],
      "name": "processBet",
      "outputs": [],
      "payable": false,
      "stateMutability": "nonpayable",
      "type": "function"
    }
  ],
  "bytecode": "0x608060405234801561001057600080fd5b50336000806101000a81548173ffffffffffffffffffffffffffffffffffffffff021916908373ffffffffffffffffffffffffffffffffffffffff1602179055506000600781905550612932806100686000396000f3fe6080604052600436106100705760003560e01c80633a9784c01161004e5780633a9784c0146102ba5780638678a7b2146102ff5780638da5cb5b1461031d578063d0e30db01461037457610070565b80632731d1fb1461007557806327dc297e1461007f57806338bbfa5014610151575b600080fd5b61007d610392565b005b34801561008b57600080fd5b5061014f600480360360408110156100a257600080fd5b8101908080359060200190929190803590602001906401000000008111156100c957600080fd5b8201836020820111156100db57600080fd5b803590602001918460018302840111640100000000831117156100fd57600080fd5b91908080601f016020809104026020016040519081016040528093929190818152602001838380828437600081840152601f19601f82011690508083019250505050505050919291929050505061054e565b005b34801561015d57600080fd5b506102b86004803603606081101561017457600080fd5b81019080803590602001909291908035906020019064010000000081111561019b57600080fd5b8201836020820111156101ad57600080fd5b803590602001918460018302840111640100000000831117156101cf57600080fd5b91908080601f016020809104026020016040519081016040528093929190818152602001838380828437600081840152601f19601f8201169050808301925050505050505091929192908035906020019064010000000081111561023257600080fd5b82018360208201111561024457600080fd5b8035906020019184600183028401116401000000008311171561026657600080fd5b91908080601f016020809104026020016040519081016040528093929190818152602001838380828437600081840152601f19601f820116905080830192505050505050509192919290505050610591565b005b3480156102c657600080fd5b506102fd600480360360408110156102dd57600080fd5b810190808035906020019092919080359060200190929190505050610663565b005b610307610818565b6040518082815260200191505060405180910390f35b34801561032957600080fd5b506103326108b6565b604051808273ffffffffffffffffffffffffffffffffffffffff1673ffffffffffffffffffffffffffffffffffffffff16815260200191505060405180910390f35b61037c6108db565b6040518082815260200191505060405180910390f35b60003411610408576040517f08c379a00000000000000000000000000000000000000000000000000000000081526004018080602001828103825260138152602001807f416d6f756e742063616e206e6f7420626520300000000000000000000000000081525060200191505060405180910390fd5b6007543073ffffffffffffffffffffffffffffffffffffffff16310334111561047c576040517f08c379a000000000000000000000000000000000000000000000000000000000815260040180806020018281038252602c8152602001806128d2602c913960400191505060405180910390fd5b346007600082825401925050819055506000610496610818565b90506104a06127bb565b33816000019073ffffffffffffffffffffffffffffffffffffffff16908173ffffffffffffffffffffffffffffffffffffffff168152505034816020018181525050806006600084815260200190815260200160002060008201518160000160006101000a81548173ffffffffffffffffffffffffffffffffffffffff021916908373ffffffffffffffffffffffffffffffffffffffff160217905550602082015181600101559050505050565b61058d828260006040519080825280601f01601f1916602001820160405280156105875781602001600182028038833980820191505090505b50610591565b5050565b6105996108fa565b73ffffffffffffffffffffffffffffffffffffffff163373ffffffffffffffffffffffffffffffffffffffff16146105d057600080fd5b60006002836040516020018082805190602001908083835b6020831061060b57805182526020820191506020810190506020830392506105e8565b6001836020036101000a0380198251168184511680821785525050505050509050019150506040516020818303038152906040528051906020012060001c8161065057fe5b06905061065d8482610663565b50505050565b600181141561072d576006600083815260200190815260200160002060000160009054906101000a900473ffffffffffffffffffffffffffffffffffffffff1673ffffffffffffffffffffffffffffffffffffffff166108fc60026006600086815260200190815260200160002060010154029081150290604051600060405180830381858888f19350505050158015610701573d6000803e3d6000fd5b50600660008381526020019081526020016000206001015460076000828254039250508190555061072e565b5b7f42bb890ac8c0616f46c22c5803b2e57ed3f41fff59594b8fb580128b20758e126006600084815260200190815260200160002060000160009054906101000a900473ffffffffffffffffffffffffffffffffffffffff1682604051808373ffffffffffffffffffffffffffffffffffffffff1673ffffffffffffffffffffffffffffffffffffffff1681526020018281526020019250505060405180910390a160066000838152602001908152602001600020600080820160006101000a81549073ffffffffffffffffffffffffffffffffffffffff0219169055600182016000905550505050565b60008060009050600062030d40905060008060001b905061083b83600184610c1a565b90507fb7942884d9f2989b125e70db3f30f09acef6d1c0ea01ea7e70559d5c9a0102a38160405180828152602001806020018281038252601b8152602001807f52616e646f6d206e756d626572207761732072657175657374656400000000008152506020019250505060405180910390a180935050505090565b6000809054906101000a900473ffffffffffffffffffffffffffffffffffffffff1681565b60003073ffffffffffffffffffffffffffffffffffffffff1631905090565b60008073ffffffffffffffffffffffffffffffffffffffff16600260009054906101000a900473ffffffffffffffffffffffffffffffffffffffff1673ffffffffffffffffffffffffffffffffffffffff16148061098257506000610980600260009054906101000a900473ffffffffffffffffffffffffffffffffffffffff166111b5565b145b156109935761099160006111c0565b505b600260009054906101000a900473ffffffffffffffffffffffffffffffffffffffff1673ffffffffffffffffffffffffffffffffffffffff166338cc48316040518163ffffffff1660e01b8152600401602060405180830381600087803b1580156109fd57600080fd5b505af1158015610a11573d6000803e3d6000fd5b505050506040513d6020811015610a2757600080fd5b810190808051906020019092919050505073ffffffffffffffffffffffffffffffffffffffff16600160009054906101000a900473ffffffffffffffffffffffffffffffffffffffff1673ffffffffffffffffffffffffffffffffffffffff1614610b7257600260009054906101000a900473ffffffffffffffffffffffffffffffffffffffff1673ffffffffffffffffffffffffffffffffffffffff166338cc48316040518163ffffffff1660e01b8152600401602060405180830381600087803b158015610af657600080fd5b505af1158015610b0a573d6000803e3d6000fd5b505050506040513d6020811015610b2057600080fd5b8101908080519060200190929190505050600160006101000a81548173ffffffffffffffffffffffffffffffffffffffff021916908373ffffffffffffffffffffffffffffffffffffffff1602179055505b600160009054906101000a900473ffffffffffffffffffffffffffffffffffffffff1673ffffffffffffffffffffffffffffffffffffffff1663c281d19e6040518163ffffffff1660e01b815260040160206040518083038186803b158015610bda57600080fd5b505afa158015610bee573d6000803e3d6000fd5b505050506040513d6020811015610c0457600080fd5b8101908080519060200190929190505050905090565b60008083118015610c2c575060208311155b610c3557600080fd5b600a84029350606060016040519080825280601f01601f191660200182016040528015610c715781602001600182028038833980820191505090505b5090508360f81b81600081518110610c8557fe5b60200101907effffffffffffffffffffffffffffffffffffffffffffffffffffffffffffff1916908160001a905350606060206040519080825280601f01601f191660200182016040528015610cea5781602001600182028038833980820191505090505b509050606060206040519080825280601f01601f191660200182016040528015610d235781602001600182028038833980820191505090505b5090506000610d306111d1565b905060208352424118600143034018602084015260208252806020830152606060206040519080825280601f01601f191660200182016040528015610d845781602001600182028038833980820191505090505b509050886020820152606060086040519080825280601f01601f191660200182016040528015610dc35781602001600182028038833980820191505090505b509050610dd682601860088460006114f1565b50610ddf6127eb565b60405180608001604052808781526020018881526020018681526020018481525090506000610e446040518060400160405280600681526020017f72616e646f6d0000000000000000000000000000000000000000000000000000815250838c611550565b9050606060086040519080825280601f01601f191660200182016040528015610e7c5781602001600182028038833980820191505090505b50905060208401517f0100000000000000000000000000000000000000000000000000000000000000810460278301537e01000000000000000000000000000000000000000000000000000000000000810460268301537d010000000000000000000000000000000000000000000000000000000000810460258301537c0100000000000000000000000000000000000000000000000000000000810460248301537b01000000000000000000000000000000000000000000000000000000810460238301537a0100000000000000000000000000000000000000000000000000008104602283015379010000000000000000000000000000000000000000000000000081046021830153780100000000000000000000000000000000000000000000000081046020830153506111a2828285600160048110610fbb57fe5b6020020151600287600060048110610fcf57fe5b60200201516040518082805190602001908083835b602083106110075780518252602082019150602081019050602083039250610fe4565b6001836020036101000a038019825116818451168082178552505050505050905001915050602060405180830381855afa158015611049573d6000803e3d6000fd5b5050506040513d602081101561105e57600080fd5b81019080805190602001909291905050508760026004811061107c57fe5b60200201516040516020018085805190602001908083835b602083106110b75780518252602082019150602081019050602083039250611094565b6001836020036101000a03801982511681845116808217855250505050505090500184805190602001908083835b6020831061110857805182526020820191506020810190506020830392506110e5565b6001836020036101000a03801982511681845116808217855250505050505090500183815260200182805190602001908083835b6020831061115f578051825260208201915060208101905060208303925061113c565b6001836020036101000a038019825116818451168082178552505050505050905001945050505050604051602081830303815290604052805190602001206118bf565b8199505050505050505050509392505050565b6000813b9050919050565b60006111ca6118db565b9050919050565b60008073ffffffffffffffffffffffffffffffffffffffff16600260009054906101000a900473ffffffffffffffffffffffffffffffffffffffff1673ffffffffffffffffffffffffffffffffffffffff16148061125957506000611257600260009054906101000a900473ffffffffffffffffffffffffffffffffffffffff166111b5565b145b1561126a5761126860006111c0565b505b600260009054906101000a900473ffffffffffffffffffffffffffffffffffffffff1673ffffffffffffffffffffffffffffffffffffffff166338cc48316040518163ffffffff1660e01b8152600401602060405180830381600087803b1580156112d457600080fd5b505af11580156112e8573d6000803e3d6000fd5b505050506040513d60208110156112fe57600080fd5b810190808051906020019092919050505073ffffffffffffffffffffffffffffffffffffffff16600160009054906101000a900473ffffffffffffffffffffffffffffffffffffffff1673ffffffffffffffffffffffffffffffffffffffff161461144957600260009054906101000a900473ffffffffffffffffffffffffffffffffffffffff1673ffffffffffffffffffffffffffffffffffffffff166338cc48316040518163ffffffff1660e01b8152600401602060405180830381600087803b1580156113cd57600080fd5b505af11580156113e1573d6000803e3d6000fd5b505050506040513d60208110156113f757600080fd5b8101908080519060200190929190505050600160006101000a81548173ffffffffffffffffffffffffffffffffffffffff021916908373ffffffffffffffffffffffffffffffffffffffff1602179055505b600160009054906101000a900473ffffffffffffffffffffffffffffffffffffffff1673ffffffffffffffffffffffffffffffffffffffff1663abaa5f3e6040518163ffffffff1660e01b815260040160206040518083038186803b1580156114b157600080fd5b505afa1580156114c5573d6000803e3d6000fd5b505050506040513d60208110156114db57600080fd5b8101908080519060200190929190505050905090565b606060008285019050808451101561150857600080fd5b600086602001905060008460200190505b8688602001018210156115415781890151808288015250602082019150602081019050611519565b85935050505095945050505050565b60008073ffffffffffffffffffffffffffffffffffffffff16600260009054906101000a900473ffffffffffffffffffffffffffffffffffffffff1673ffffffffffffffffffffffffffffffffffffffff1614806115d8575060006115d6600260009054906101000a900473ffffffffffffffffffffffffffffffffffffffff166111b5565b145b156115e9576115e760006111c0565b505b600260009054906101000a900473ffffffffffffffffffffffffffffffffffffffff1673ffffffffffffffffffffffffffffffffffffffff166338cc48316040518163ffffffff1660e01b8152600401602060405180830381600087803b15801561165357600080fd5b505af1158015611667573d6000803e3d6000fd5b505050506040513d602081101561167d57600080fd5b810190808051906020019092919050505073ffffffffffffffffffffffffffffffffffffffff16600160009054906101000a900473ffffffffffffffffffffffffffffffffffffffff1673ffffffffffffffffffffffffffffffffffffffff16146117c857600260009054906101000a900473ffffffffffffffffffffffffffffffffffffffff1673ffffffffffffffffffffffffffffffffffffffff166338cc48316040518163ffffffff1660e01b8152600401602060405180830381600087803b15801561174c57600080fd5b505af1158015611760573d6000803e3d6000fd5b505050506040513d602081101561177657600080fd5b8101908080519060200190929190505050600160006101000a81548173ffffffffffffffffffffffffffffffffffffffff021916908373ffffffffffffffffffffffffffffffffffffffff1602179055505b606060046040519080825280602002602001820160405280156117ff57816020015b60608152602001906001900390816117ea5790505b5090508360006004811061180f57fe5b60200201518160008151811061182157fe5b60200260200101819052508360016004811061183957fe5b60200201518160018151811061184b57fe5b60200260200101819052508360026004811061186357fe5b60200201518160028151811061187557fe5b60200260200101819052508360036004811061188d57fe5b60200201518160038151811061189f57fe5b60200260200101819052506118b5858285611e32565b9150509392505050565b8060046000848152602001908152602001600020819055505050565b6000806118fb731d3b2638a7cc9f2cb3d298a3da7a90b67e5506ed6111b5565b111561199d57731d3b2638a7cc9f2cb3d298a3da7a90b67e5506ed600260006101000a81548173ffffffffffffffffffffffffffffffffffffffff021916908373ffffffffffffffffffffffffffffffffffffffff1602179055506119946040518060400160405280600b81526020017f6574685f6d61696e6e6574000000000000000000000000000000000000000000815250612398565b60019050611e2f565b60006119bc73c03a2615d5efaf5f49f60b7bb6583eaec212fdf16111b5565b1115611a5e5773c03a2615d5efaf5f49f60b7bb6583eaec212fdf1600260006101000a81548173ffffffffffffffffffffffffffffffffffffffff021916908373ffffffffffffffffffffffffffffffffffffffff160217905550611a556040518060400160405280600c81526020017f6574685f726f707374656e330000000000000000000000000000000000000000815250612398565b60019050611e2f565b6000611a7d73b7a07bcf2ba2f2703b24c0691b5278999c59ac7e6111b5565b1115611b1f5773b7a07bcf2ba2f2703b24c0691b5278999c59ac7e600260006101000a81548173ffffffffffffffffffffffffffffffffffffffff021916908373ffffffffffffffffffffffffffffffffffffffff160217905550611b166040518060400160405280600981526020017f6574685f6b6f76616e0000000000000000000000000000000000000000000000815250612398565b60019050611e2f565b6000611b3e73146500cfd35b22e4a392fe0adc06de1a1368ed486111b5565b1115611be05773146500cfd35b22e4a392fe0adc06de1a1368ed48600260006101000a81548173ffffffffffffffffffffffffffffffffffffffff021916908373ffffffffffffffffffffffffffffffffffffffff160217905550611bd76040518060400160405280600b81526020017f6574685f72696e6b656279000000000000000000000000000000000000000000815250612398565b60019050611e2f565b6000611bff73a2998efd205fb9d4b4963afb70778d6354ad3a416111b5565b1115611ca15773a2998efd205fb9d4b4963afb70778d6354ad3a41600260006101000a81548173ffffffffffffffffffffffffffffffffffffffff021916908373ffffffffffffffffffffffffffffffffffffffff160217905550611c986040518060400160405280600a81526020017f6574685f676f65726c6900000000000000000000000000000000000000000000815250612398565b60019050611e2f565b6000611cc0736f485c8bf6fc43ea212e93bbf8ce046c7f1cb4756111b5565b1115611d2457736f485c8bf6fc43ea212e93bbf8ce046c7f1cb475600260006101000a81548173ffffffffffffffffffffffffffffffffffffffff021916908373ffffffffffffffffffffffffffffffffffffffff16021790555060019050611e2f565b6000611d437320e12a1f859b3feae5fb2a0a32c18f5a65555bbf6111b5565b1115611da7577320e12a1f859b3feae5fb2a0a32c18f5a65555bbf600260006101000a81548173ffffffffffffffffffffffffffffffffffffffff021916908373ffffffffffffffffffffffffffffffffffffffff16021790555060019050611e2f565b6000611dc67351efaf4c8b3c9afbd5ab9f4bbc82784ab6ef8faa6111b5565b1115611e2a577351efaf4c8b3c9afbd5ab9f4bbc82784ab6ef8faa600260006101000a81548173ffffffffffffffffffffffffffffffffffffffff021916908373ffffffffffffffffffffffffffffffffffffffff16021790555060019050611e2f565b600090505b90565b60008073ffffffffffffffffffffffffffffffffffffffff16600260009054906101000a900473ffffffffffffffffffffffffffffffffffffffff1673ffffffffffffffffffffffffffffffffffffffff161480611eba57506000611eb8600260009054906101000a900473ffffffffffffffffffffffffffffffffffffffff166111b5565b145b15611ecb57611ec960006111c0565b505b600260009054906101000a900473ffffffffffffffffffffffffffffffffffffffff1673ffffffffffffffffffffffffffffffffffffffff166338cc48316040518163ffffffff1660e01b8152600401602060405180830381600087803b158015611f3557600080fd5b505af1158015611f49573d6000803e3d6000fd5b505050506040513d6020811015611f5f57600080fd5b810190808051906020019092919050505073ffffffffffffffffffffffffffffffffffffffff16600160009054906101000a900473ffffffffffffffffffffffffffffffffffffffff1673ffffffffffffffffffffffffffffffffffffffff16146120aa57600260009054906101000a900473ffffffffffffffffffffffffffffffffffffffff1673ffffffffffffffffffffffffffffffffffffffff166338cc48316040518163ffffffff1660e01b8152600401602060405180830381600087803b15801561202e57600080fd5b505af1158015612042573d6000803e3d6000fd5b505050506040513d602081101561205857600080fd5b8101908080519060200190929190505050600160006101000a81548173ffffffffffffffffffffffffffffffffffffffff021916908373ffffffffffffffffffffffffffffffffffffffff1602179055505b6000600160009054906101000a900473ffffffffffffffffffffffffffffffffffffffff1673ffffffffffffffffffffffffffffffffffffffff16632ef3accc86856040518363ffffffff1660e01b81526004018080602001838152602001828103825284818151815260200191508051906020019080838360005b83811015612141578082015181840152602081019050612126565b50505050905090810190601f16801561216e5780820380516001836020036101000a031916815260200191505b509350505050602060405180830381600087803b15801561218e57600080fd5b505af11580156121a2573d6000803e3d6000fd5b505050506040513d60208110156121b857600080fd5b81019080805190602001909291905050509050823a02670de0b6b3a7640000018111156121eb576000801b915050612391565b60606121f6856123b2565b9050600160009054906101000a900473ffffffffffffffffffffffffffffffffffffffff1673ffffffffffffffffffffffffffffffffffffffff1663c55c1cb68360008985896040518663ffffffff1660e01b8152600401808581526020018060200180602001848152602001838103835286818151815260200191508051906020019080838360005b8381101561229b578082015181840152602081019050612280565b50505050905090810190601f1680156122c85780820380516001836020036101000a031916815260200191505b50838103825285818151815260200191508051906020019080838360005b838110156123015780820151818401526020810190506122e6565b50505050905090810190601f16801561232e5780820380516001836020036101000a031916815260200191505b5096505050505050506020604051808303818588803b15801561235057600080fd5b505af1158015612364573d6000803e3d6000fd5b50505050506040513d602081101561237b57600080fd5b8101908080519060200190929190505050925050505b9392505050565b80600390805190602001906123ae929190612812565b5050565b60606123bc612432565b6123c4612892565b6123d08161040061243e565b6123d981612488565b60008090505b835181101561241b5761240e8482815181106123f757fe5b60200260200101518361249690919063ffffffff16565b80806001019150506123df565b50612425816124bb565b8060000151915050919050565b60405180590338823950565b600081905060006020828161244f57fe5b0614612468576020818161245f57fe5b06602003810190505b808360200181815250506040518084526000815281810160405250505050565b6124938160046124c9565b50565b6124a382600283516124ea565b6124b6818361262a90919063ffffffff16565b505050565b6124c68160076124c9565b50565b6124e6601f60058360ff16901b17836126d590919063ffffffff16565b5050565b60178111612516576125118160058460ff16901b60ff1617846126d590919063ffffffff16565b612625565b60ff81116125575761253b601860058460ff16901b17846126d590919063ffffffff16565b612551816001856127159092919063ffffffff16565b50612624565b61ffff81116125995761257d601960058460ff16901b17846126d590919063ffffffff16565b612593816002856127159092919063ffffffff16565b50612623565b63ffffffff81116125dd576125c1601a60058460ff16901b17846126d590919063ffffffff16565b6125d7816004856127159092919063ffffffff16565b50612622565b67ffffffffffffffff811161262157612609601b60058460ff16901b17846126d590919063ffffffff16565b61261f816008856127159092919063ffffffff16565b505b5b5b5b5b505050565b612632612892565b826020015183600001515183510111156126625761266183600261265b8660200151865161277c565b02612798565b5b60008060008451905085518051602081830101945086518101825260208701935050505b602081106126a95781518352602083019250602082019150602081039050612686565b60006001826020036101000a039050801983511681855116818117865250508694505050505092915050565b816020015160018360000151510111156126fb576126fa826002846020015102612798565b5b815180516020818301018381536001820183525050505050565b61271d612892565b83602001518460000151518301111561274b5761274a84600261274487602001518661277c565b02612798565b5b60006001836101000a0390508451805184818301018684198251161781528582018352505050849150509392505050565b60008183111561278e57829050612792565b8190505b92915050565b6060826000015190506127ab838361243e565b6127b5838261262a565b50505050565b6040518060400160405280600073ffffffffffffffffffffffffffffffffffffffff168152602001600081525090565b60405180608001604052806004905b60608152602001906001900390816127fa5790505090565b828054600181600116156101000203166002900490600052602060002090601f016020900481019282601f1061285357805160ff1916838001178555612881565b82800160010185558215612881579182015b82811115612880578251825591602001919060010190612865565b5b50905061288e91906128ac565b5090565b604051806040016040528060608152602001600081525090565b6128ce91905b808211156128ca5760008160009055506001016128b2565b5090565b9056fe436f696e42657420686173206e6f7420656e6f7567682066756e647320666f72207468697320626574203a28a265627a7a723158203703def626374dfdd3abcebc375cf423227028545cf0b2b694e1d533ffb8fce564736f6c634300050c0032",
  "source": "import \"./Ownable.sol\"; \nimport \"./provableAPI.sol\";\npragma solidity 0.5.12;\n\ncontract CoinBet is Ownable, usingProvable{\n\n  constructor() public {\n      bettingBalance = 0;   \n  }\n\n  mapping (bytes32 => bet) private bets;\n  struct bet {\n    address payable userAddress;\n    uint value;\n  }\n\n  uint bettingBalance;\n  uint256 constant NUM_RANDOM_BYTES_REQUESTED = 1;\n\n  event randomNumberRequested(bytes32 queryId, string description);\n  event betResultReady(address userAddress, uint betResult);\n\n  function deposit() public payable returns(uint){\n    return(address(this).balance);\n  }\n\n  function submitBet() public payable{\n\n    require(msg.value > 0, \"Amount can not be 0\");\n    require(msg.value <= (address(this).balance - bettingBalance), \"CoinBet has not enough funds for this bet :(\");\n    bettingBalance += msg.value;\n    \n    bytes32 newQuery = requestRandomNumber();\n    bet memory newBet;\n    newBet.userAddress = msg.sender;\n    newBet.value = msg.value;\n    bets[newQuery] = newBet;\n  }\n\n  function __callback(bytes32 _queryId, string memory _result, bytes memory _proof) public { //Functions that returns the random number\n    require(msg.sender == provable_cbAddress());\n\n    uint256 randomNumber = uint256(keccak256(abi.encodePacked(_result))) % 2;\n    processBet(_queryId, randomNumber);\n  }\n\n  function requestRandomNumber() public payable returns(bytes32){ //Function that request the random number value to the provable API\n    uint256 QUERY_EXECUTION_DELAY = 0;\n    uint256 GAS_FOR_CALLBACK = 200000;\n    bytes32 queryID = 0;\n    queryID = provable_newRandomDSQuery(QUERY_EXECUTION_DELAY, NUM_RANDOM_BYTES_REQUESTED, GAS_FOR_CALLBACK);\n    emit randomNumberRequested(queryID, \"Random number was requested\");\n    return queryID;\n  }\n\n  function processBet(bytes32 _queryId, uint256 _randomNumber) public{\n    if (_randomNumber == 1){\n      bets[_queryId].userAddress.transfer(bets[_queryId].value * 2);\n      bettingBalance -= bets[_queryId].value;\n    }\n    else{\n      //Do nothing\n    }\n    emit betResultReady(bets[_queryId].userAddress, _randomNumber);\n    delete bets[_queryId];\n  }\n}\n",
  "sourcePath": "/Users/marcocovarrubias/Documents/Ethereum/CoinBet/smartContract/contracts/CoinBet.sol",
  "compiler": {
    "name": "solc",
    "version": "0.5.12+commit.7709ece9.Emscripten.clang"
  },
  "schemaVersion": "3.0.16",
  "updatedAt": "2021-01-17T01:57:20.606Z",
  "devdoc": {
    "methods": {
      "__callback(bytes32,string)": {
        "details": "The following `__callback` functions are just placeholders ideally     meant to be defined in child contract when proofs are used.     The function bodies simply silence compiler warnings."
      }
    }
  },
  "userdoc": {
    "methods": {}
  }
}